:020000040800F2
:1000000000500020698B0008C9390008CB3900086E
:10001000CD390008CF390008D139000800000000B0
:10002000000000000000000000000000D3390008BC
:10003000D539000800000000D7390008D939000878
:10004000B18B0008B18B0008B18B0008B18B0008A0
:10005000B18B0008B18B0008E1390008B18B0008B2
:10006000B18B0008B18B0008B18B0008B18B000880
:10007000B18B0008B18B0008B18B0008B18B000870
:10008000B18B0008B18B0008B18B0008B18B000860
:10009000B18B0008B18B0008B18B0008B18B000850
:1000A000B18B0008B18B0008B18B0008B18B000840
:1000B000ED390008B18B0008B18B0008B18B000846
:1000C000B18B0008B18B0008B18B0008B18B000820
:1000D000B18B0008B18B0008FD390008B18B000816
:1000E000B18B0008B18B0008B18B00080000000044
:1000F0000000000000000000000000000000000000
:0C01000000000000000000005FF808F1A3
:10011000024A0349034800F069B900BF000000200B
:1001200081130008100000200C4B416810B5994263
:10013000044601D001F024F9A168094B994202D08C
:10014000204601F01DF9E168064B994204D0204693
:10015000BDE8104001F014B910BD00BFA0000020A0
:10016000080100207001002008B54B6EDA0702D4A8
:100170008B899B0501D5002008BD886D00F0E4FB4C
:10018000002008BD08B54B6EDA0702D48B899B05A9
:1001900001D5002008BD886D00F0DEFB002008BD01
:1001A0002DE9F84300250423304C3149DFF8C49091
:1001B000DFF8C480314F324E0822C4F8381104F100
:1001C0005C002946C4E90335C4E90055C4E9055576
:1001D000A560656600F0DCFA04F15800C4E908493E
:1001E000C4E90A87266300F0A7FB264B29460822AC
:1001F00004F1C4006367C4E91A55C4E91E552567B4
:10020000C4F8CC50C4F8805000F0C2FA04F168037E
:1002100004F1C000C4F88830C4E92398C4E9257605
:1002200000F08AFB184B294604F596700822C4F8A2
:10023000DC30C4E93455C4E93855C4F8D850C4F8A2
:100240003451C4F8E85000F0A3FA04F1D003C4E933
:100250003E87C4F8F49004F59470C4F80061C4F8C3
:10026000F030BDE8F84300F067BB00BFA0000020FD
:10027000110100084105000869050008A9050008EA
:10028000CD0500080900010012000200F8B506467D
:100290002A4800F059FB2A4BD3F83831002B43D0C1
:1002A000284FD7E90134013B04D524E05A1C04F15E
:1002B000680420D0B4F90C50013B002DF6D1224B3C
:1002C00004F15800E360656600F036FB1B4800F05F
:1002D00043FB08222946C4E90155C4E904552560B9
:1002E000A56104F15C0000F053FAC4E90D55C4E9BE
:1002F00012552046F8BD3D680DB12F46D1E74FF4A9
:10030000D671304600F0AEFB044680B10423056090
:10031000294625460C304FF4D072A060636000F08F
:1003200037FA3C602F46BCE7FFF73AFFB8E70348CF
:100330003C6000F011FB0C233360DAE7FC01002085
:10034000A0000020000000200100FFFF10B50446BF
:100350000B4800F0F9FA236A2BB90A4B0A4AD3F882
:100360003831226223B1BDE81040054800F0F4BAEC
:10037000FFF716FFBDE81040014800F0EDBA00BFDE
:10038000FC010020A000002029010008014800F025
:10039000DBBA00BFFC010020014800F0DDBA00BF5D
:1003A000FC01002008B5054800F0CEFABDE8084081
:1003B0000020034A034900F019B800BFFC010020E7
:1003C000000000206901000808B50020044A054922
:1003D00000F00CF8BDE80840034800F0BDBA00BFCB
:1003E0000000002085010008FC0100202DE9F843F1
:1003F0004FF0000980460F461646D6E90154013DEC
:1004000010D4A389012B08D9B4F90E30013304D0DC
:1004100021464046B84749EA0009013D6B1C04F1FA
:100420006804EED13668002EE7D14846BDE8F8836F
:100430000EB400B582B003AB53F8042B816801936E
:1004400000F0D8FB02B05DF804EB03B0704700BFCA
:100450000FB400B5074A83B004AB106853F8042BFF
:100460008168019300F0C6FB03B05DF804EB04B0B3
:10047000704700BF0C000020036A70B506460D46A9
:100480008468002B50D0626EB4F90C30D20701D4CE
:10049000980543D5190714D5236993B1013DA36885
:1004A00015F8011F013BA36011B3002B04DAA26908
:1004B000934216DB0A2914D023685A1C2260197053
:1004C000EDE72146304600F0D3F80028E6D04FF0A3
:1004D000FF35636EDA0702D4A3899B0519D5284638
:1004E00070BD2246304600F075F80130D7D1EEE7F6
:1004F000002B08DA22460A21304600F06BF8013062
:10050000E5D00A25E5E70A222368591C21601A7004
:10051000F7E7A06D00F020FA284670BDA06D00F04E
:1005200013FAB4F90C30B5E7FFF710FFABE700BFE3
:10053000024B01461868FFF79FBF00BF0C00002068
:1005400010B50C46B1F90E1000F09AF9002803DB43
:10055000636D0344636510BDA38923F48053A381B5
:1005600010BD00BF002070472DE9F0410C46B1F9E5
:100570000C101F46CB05054616460BD421F48051BE
:10058000A1813B4632462846B4F90E10BDE8F04141
:1005900000F08CB9B4F90E100223002200F05AF9D1
:1005A000B4F90C10EAE700BF10B50C46B1F90E1013
:1005B00000F050F9B4F90C30421C0EBF23F4805304
:1005C00043F480536065A38110BD00BFB1F90E10E4
:1005D00000F02EB9F8B506460D46144610B1036A70
:1005E000002B37D0A269A389A2601A0719D5236905
:1005F000BBB122686169D31AEDB299422F4620DD62
:100600000133A1680139A160511C21601570626934
:100610009A420DD0A389DB0701D50A2D08D03846B0
:10062000F8BD2146304600F023F838B92369E0E7E9
:100630002146304600F0A4FE0028F0D04FF0FF37EE
:10064000EDE72146304600F09BFE0028F6D101235D
:100650002268D6E7FFF77AFEC4E700BF03460A46E2
:10066000024908681946FFF7B5BF00BF0C0000201B
:1006700038B52F4B05461B680C4613B11A6A002A81
:100680004BD0B4F90C3018071CD5226922B313F0F3
:10069000010107D000206169A0604942A1613AB11F
:1006A000002038BD980758BF6169A160002AF7D1C2
:1006B000190658BF1046F4D543F04003A3814FF00C
:1006C000FF3038BDD9062CD55A0712D4226943F021
:1006D0000803A381002ADAD103F42071B1F5007F69
:1006E000D5D02146284601F001F8B4F90C30226932
:1006F000CDE7616B51B104F14402914204D0284628
:1007000000F02CF9B4F90C30002262630021226958
:1007100023F02403C4E90021D9E71846FFF716FEA9
:10072000AFE7092243F040032A60A381C7E700BF77
:100730000C000020032A30B415D941EA0004A407B4
:1007400084460B4604D0541E0FE0043A032A08D90D
:100750001946604653F8044B5CF8045BA542F4D09C
:10076000F1E760461946541E7AB1431E0139021959
:1007700001E09A4209D013F8010F11F801CF60454A
:10078000F7D0A0EB0C0030BC7047002030BC7047A5
:1007900070B5860747D0541E002A3ED00346CAB221
:1007A00001E0013C39D303F8012B9D07F9D1032C5B
:1007B0002CD9CDB205EB05250F2C1A4605EB0545C6
:1007C00034D9A4F1100C2CF00F0603F1100EB6442E
:1007D0004FEA1C1CC2E90055C2E9025510327245AD
:1007E000F8D10CF1010214F00C0F03EB021204F02B
:1007F0000F0C13D0ACF1040323F0030304331344B0
:1008000042F8045B9342FBD10CF003042CB1C9B253
:100810001C4403F8011BA342FBD170BD6446134680
:10082000002CF4D1F9E703461446C0E7A446E1E7FB
:10083000002238B5064D044608462A6003F0E0FE63
:10084000431C00D038BD2B68002BFBD0236038BD83
:10085000DC01002038B50C46114600228446074DC5
:1008600020462A601A46644603F0D4FE431C00D09A
:1008700038BD2B68002BFBD0236038BDDC01002085
:1008800038B50C46114600228446074D20462A60A2
:100890001A46644603F096FE431C00D038BD2B6810
:1008A000002BFBD0236038BDDC01002038B50C469E
:1008B000114600228446074D20462A601A466446A7
:1008C00003F090FE431C00D038BD2B68002BFBD0FA
:1008D000236038BDDC010020014B1868704700BF61
:1008E0000C00002070B50F4B0F4DAB42A3EB05067B
:1008F00007D00024B61055F8043B01349847A642AF
:10090000F9D808F0A7FA094D094B5E1BAB424FEA34
:10091000A60606D0002455F8043B01349847A642A9
:10092000F9D870BD70A2000870A2000870A200087B
:1009300074A20008704700BF704700BF704700BF37
:10094000704700BF704700BF704700BF012070476D
:1009500001207047704700BF704700BF002950D08A
:1009600038B551F8043C0C1F002BB8BFE4180546FD
:1009700000F0F8F8274A13682BB1A3420CD921687C
:10098000601883422CD0284663601460BDE838406C
:1009900000F0EEB8A3420FD81A465B68002BF9D1DD
:1009A00011685018844217D02CD3636054602846D5
:1009B000BDE8384000F0DCB811685018A04214D0EF
:1009C00020D8216860188342EFD118685B6808441A
:1009D000C4E900035460EAE723680B441360E6E7C8
:1009E00018685B6808442060CDE72068014450180F
:1009F00083421160DBD1D3E900040144C2E9001451
:100A0000D5E770470C2328462B60BDE8384000F03E
:100A1000AFB800BF0402002070B5114E0546336820
:100A20000C46BBB12146284600F08CFF431C014612
:100A30000CD0C41C24F00304A04205D02846611A3F
:100A400000F080FF013001D0204670BD4FF0FF3430
:100A5000204670BD194600F075FF3060E2E700BF28
:100A6000000200202DE9F843CD1C25F003050835D0
:100A70000C2D38BF0C25002D064618DBA94216D8D0
:100A8000DFF8DC8000F06EF8D8F80420A2B114463C
:100A900003E0636822467BB11C4623685B1BF8D4E5
:100AA0000B2B1FD89442636854D053600CE00C2386
:100AB00033600020BDE8F88329463046FFF7ACFFDD
:100AC000431C044619D00560304600F051F804F18B
:100AD0000B00231D20F00700C21A1CBF1B1AA350D5
:100AE000BDE8F88361199442256014BF5160C8F8CD
:100AF0000410635163684B60E6E7D8F804701FB3D5
:100B00003C467F68002FFBD123683946304604EB12
:100B1000030900F017FF814516D123683046ED1A0E
:100B20002946FFF779FF01300ED02368D8F804205A
:100B30002B442360536883B1A34203D01A465B68F9
:100B40009C42FBD10023B0E70C233046336000F019
:100B50000FF8AEE7C8F80430B6E7C8F80470B3E79A
:100B6000000200200148FFF7EFBE00BFF0010020A7
:100B70000148FFF7F1BE00BFF00100209368013B80
:100B8000002B936005DAD2F818C0634507DB0A2909
:100B900005D01368581C1060084619707047FFF79D
:100BA00019BD00BF9BB1F8B5134406460F46541E4D
:100BB0005D1E01E0AC4208D03A46304614F8011FF1
:100BC000FFF7DCFF431CF5D1F8BD0020F8BD002085
:100BD000704700BF936810B514461BB91846002330
:100BE000636010BD00F00CFC0023A3600023636071
:100BF00010BD00BF2DE9F04FA1B08B4691461C46B9
:100C0000049018B1036A002B00F04181DBF86420E6
:100C1000BBF90C30D20702D49F0540F131811E0789
:100C200040F19A80DBF81030002B00F09580002313
:100C300043F220020D9399F800300127954E079456
:100C4000ADF83920002B77D04D4604E015F8013F70
:100C5000002B00F09780252BF8D1B5EB090A40F066
:100C600094802B78002B67D000234FF0FF320135A2
:100C7000CDE9092308930B938DF863301E9306E0AA
:100C80002546089B801B07FA00F0034308932C4677
:100C9000052214F8011B304600F066FEA14600282C
:100CA000EED1089BD80644BF20228DF86320190797
:100CB00048BF2B22297848BF8DF863202A297AD192
:100CC000079A1168043200290792C0F2AD800B9197
:100CD00069782E2900F086806F4C0322204600F0B0
:100CE00043FE38B14022089B001B8240134309F1A8
:100CF0000109089319F8011B062268488DF838107D
:100D000000F032FE002800F09580654B002B7ED06D
:100D100007A900915A460498624B08A9AFF30080D6
:100D20000390039B013307D00D9B039A13440D934B
:100D300099F80030002B87D1DBF8643013F0010FF5
:100D4000BBF80C3002D19A0540F193805B0616D4B3
:100D50000D9821B0BDE8F08F59460498FFF788FC44
:100D600000283FF464AFDBF86430DD0707D4BBF83C
:100D70000C309C0503D4DBF85800FFF7EDFD4FF075
:100D8000FF30E6E7B5EB090AD6D009F1FF38059543
:100D90004546DDF8108001E0A2453FD92C465A4671
:100DA000404615F8011FFFF7E9FE02340130A4EBBD
:100DB0000904F1D1C0E7A1F13002092A88BFA94690
:100DC00087D80B9B00E00134217803EB830302EB0F
:100DD0004303A1F13002092AF5D92E29A1460B932C
:100DE0007FF47AAF99F801102A292DD1079B09F1D8
:100DF00002001A680433002A0793B8BF4FF0FF338C
:100E000099F8021009928146B8BF099364E7079BDD
:100E1000073323F007030833079385E70D99059DF2
:100E200051442B780D911DE7494243F002030B9189
:100E300008934DE707A900915A460498194B08A951
:100E400000F0D2F803906CE70023A1F13002092AE8
:100E500009F1010909933FF63FAF19F8011F03EBB0
:100E6000830302EB4303A1F13002092AF5D9099368
:100E700032E7DBF85800FFF76FFDBBF80C3065E791
:100E8000DBF85800FFF760FDBBF90C30C7E6FFF751
:100E90005DFABBE6C88F0008D08F0008D48F000829
:100EA00000000000A50B00088C4600B586461346DE
:100EB000034A714610685DF804EB6246FFF79ABE7C
:100EC0000C0000202DE9F84F92461F460A698B68F6
:100ED0000C469A42B8BF1A46CAF8002091F843302F
:100EE0000646DDF8289013B10132CAF800202268C6
:100EF00091065FD5DAF800300233CAF80030226874
:100F000012F0060F11461DD1E1689942D8BF114673
:100F100018DD4FF0000804F1190B05E0E568DAF878
:100F20000030ED1A45450CDD01235A46394630465E
:100F3000C847013008F10108F0D14FF0FF30BDE89B
:100F4000F88F216894F84330003B18BF01238A06CC
:100F50000AD53021E21882F8431094F845105A1C43
:100F60002244023382F843103946304604F14302EA
:100F7000C8470130E1D0D4E902202368DAF80050F4
:100F800003F00603042B21691BD08A4220DD4FF0B9
:100F90000008521A904400251A3401E0454517DA3A
:100FA0000123224639463046C847013005F1010584
:100FB000F4D1C2E712F0060F0DD0003B18BF012399
:100FC000D2E7401B8A4220EAE078E2DC0028E2DC3B
:100FD0000020BDE8F88FE168DAF800309942D8BF08
:100FE000114696DCAEE700BF2DE9F04717460A7EB2
:100FF00084B00C46064698460C9D01F1430C002A2D
:1010000035D0A2F15803D9B2202969D8202B67D84E
:10101000DFE813F0E6006600660066006600660022
:1010200066006600660066006600AC007000660040
:101030006600660066007000660066006600660076
:1010400021008300C60066006600B60066008300CB
:1010500066006600EC002B682268181D6169286034
:1010600010061B6802D4520600F1E08019600023CC
:10107000E14623613B4621463046CDF8008003AA75
:10108000FFF720FF013020D04A4639463046236919
:10109000C047013019D02368E0689B07DDF80C9049
:1010A00018D5484516DD002504F1190A04E0E0686A
:1010B000A0EB0903AB420DDD012352463946304611
:1010C000C047013005F10105F1D14FF0FF3004B008
:1010D000BDE8F0874845B8BF484604B0BDE8F08792
:1010E000012084F8422004F142090023206184F8A1
:1010F0004330BFE72A682368111D1806296002D40F
:10110000590600F195801068014600286268C0F217
:1011100093804FF00A0E534815E020682B6810F0BA
:10112000800F53F8041B02D1400648BF89B26F2AD2
:1011300014BF4FF00A0E4FF0080E4A482B600023F0
:10114000626884F84330002AA26051DB236823F0F0
:101150000403236000294BD1002A7BD1E146BEF174
:10116000080F56D0ACEB0903236183E72A680120FE
:10117000116804322A6004F1420984F84210B4E78D
:101180002B6800211A1D2A60D3F800906268484637
:1011900000F0EAFB002863D0A0EB09006060A4E740
:1011A000236843F02003236078222F4884F84520E9
:1011B0002A6813F0800F52F8041B03D113F0400F7C
:1011C00018BF89B22A60DA0744BF43F020032360C6
:1011D00019B9236823F0200323604FF0100EAEE707
:1011E0005823204884F845302368E1E72368DBE78B
:1011F0007546E146B1FBF5F30A4605FB131A19469D
:1012000010F80A30AA4209F8013DF3D2BEF1080FE6
:10121000A8D12368DD07A5D5626823699A42A1DCBD
:10122000302309F1FF3989F800309BE719801EE768
:10123000B2F90010084668E72D20002AA26084F861
:10124000430002DB23F0040323600A250548AE4671
:101250004942CEE7037804F1420984F842307EE740
:10126000606842E7DC8F0008F08F0008F8B5B1F93C
:101270000C300C461E07074639D44A68002A53DD55
:10128000E56A002D31D000223E683A6013F48052A6
:10129000216A55D101233846A847451C024663D030
:1012A000B4F90C30E56A216A580705D56368D21A8B
:1012B000636B0BB1236CD21A00233846A847421C3B
:1012C00040D00022236962602360A389DB0400D53B
:1012D0006065616B3E6041B104F14403994202D004
:1012E0003846FFF73BFB002363630020F8BD0E691F
:1012F000002EFAD09B0718BF00230D6808BF4B696A
:101300000E60AD1B8B600CE02B463246D4F828C033
:101310003846216AE047B0F1000CA5EB0C056644A5
:1013200006DD002DF0DCE0E70A6C002AA8DCDCE733
:10133000B4F90C3043F040034FF0FF30A381F8BD07
:10134000626DB1E73968B4F90C301D29F2D80B4A47
:10135000CA40D507EED50022626022692260DA0415
:10136000B7D50029B4D0B4E73B68002B98D01D2B2B
:1013700001D0162BDCD13E60B7E700BF0100402052
:1013800038B50B69CBB10C46054608B1036ABBB151
:10139000B4F90C308BB1626ED00701D4990512D527
:1013A00028462146FFF762FF636E0546DA0702D43E
:1013B000A3899B050BD5284638BD0025284638BD96
:1013C000FEF7C4FFE4E7A06DFFF7BEFAE8E7A06D03
:1013D000FFF7C2FAEFE700BF014618B1044B1868E7
:1013E000FFF7CEBF034A04490448FEF7FFBF00BF22
:1013F0000C000020000000208113000810000020D5
:101400009368002B00F0F0802DE9F04FB1F90CC08B
:1014100090461CF0080F81460C4683B02BD00B6918
:101420004BB31CF00207D8F8006032D04FF0000A2E
:101430005546D4F828B0216AAB4FC5B1BD422B4602
:10144000524628BF3B464846D847002840F3C28052
:10145000D8F8083082441B1A2D1AC8F80830002B1F
:1014600000F0AE80D4F828B0216A002DE6D1D6E98C
:1014700000A50836E1E721464846FFF7F9F80028BD
:1014800040F0AD80B4F90CC0D8F800601CF0020741
:10149000CCD11CF0010A63D157462368A1681846D5
:1014A0008B46002F58D01CF4007F00F0B180B94269
:1014B0000A4600F2DD801CF4906F2FD0216962692A
:1014C0005D1A02EB420202EBD2726B1C52103B44DB
:1014D000934292BF93469B461A461CF4806F00F0DD
:1014E000E68011464846FFF7BDFA002800F0F58077
:1014F0002A462169019000F083FAA289019B22F417
:10150000906242F08002A2815819C4F814B0ABEB8B
:1015100005053A46BB462361A56020603D4600278D
:101520005146019200F06AF9A1682368019AA1EB83
:101530000B011A44A1602260D8F80830AA445B1B52
:10154000C8F80830002B3BD02368A16818468B46AA
:10155000B4F90CC0002FA6D1D6E900A708369EE743
:101560003846BB463D46002D40D0002845D03A467F
:10157000D4E904C32068AA4228BF2A466045A1686E
:1015800004D901EB030A524500F38280934272DCD6
:101590005A464846216AD4F828C0E047B0F1000A0C
:1015A00018DDB7EB0A070FD00120D8F80830D34474
:1015B000A3EB0A03A5EB0A05C8F80830002BD2D12B
:1015C000002003B0BDE8F08F21464846FFF7D8FE63
:1015D0000028EAD0B4F90C3043F04003A3814FF067
:1015E000FF3003B0BDE8F08F0020704775683346C8
:1015F0000836002DFAD0D3F800B02A460A21584602
:1016000000F0B2F9002865D00130A0EB0B07AEE77F
:1016100022699A4214D36569BD4211D86FF0004324
:10162000BB4228BF3B4693FBF5F3524605FB03F351
:101630004846A56A216AA847051ECBDD7F1B7BE7CC
:10164000B94228BF39460D46184651462A4600F091
:10165000D5F8A1682368491B2B44A16023600029A9
:10166000ECD121464846FFF78BFE0028E6D0B1E7D3
:10167000BB463A4652E75946019200F0BFF8019A3C
:10168000A36892469B1AA36023681344236088E7EB
:101690005946524600F0B2F8236821465344484662
:1016A0002360FFF76DFE00283FF47BAF92E74846CA
:1016B00000F01CFA034600287FF426AF4846216953
:1016C000FFF74CF90C22B4F90C30C9F8002023F0D4
:1016D000800381E76A1C17464AE70C22B4F90C30F4
:1016E000C9F8002078E700BF00FCFF7F70B5B1F9B2
:1016F0000C300C46990796B007D5012204F1470338
:10170000C4E90432236016B070BDB4F90E1005466A
:10171000002929DB6A4600F0EFF8002822DB4FF4AD
:1017200080612846019EFFF79DF988B3A38906F4DE
:10173000704643F08003A3814FF48063B6F5005FE9
:10174000C4E904032060DED12846B4F90E1000F08D
:10175000E7F80028D7D0A38923F0030343F001035F
:10176000A381D0E7B4F90C3013F0800F14BF4026EA
:101770004FF4806628463146FFF774F940B1A389DB
:10178000C4E9040643F080032060A38116B070BD55
:10179000B4F90C309A05B6D4012123F0030304F107
:1017A000470243F00203C4E90421A3812260AAE7AF
:1017B00070B50C46B1F90E10154600291E4696B0BC
:1017C0000FDB6A4600F098F800280ADB019B4FF413
:1017D000806203F47043A3F50053B3FA83F35B090B
:1017E00007E0A289002312F0800F14BF40224FF4BB
:1017F0008062002033602A6016B070BD88420ED926
:101800008B1883420BD900EB020C002A6DD0624684
:1018100013F801CD994202F801CDF9D170470F2A92
:101820000FD8034602F1FF3C002A5ED00CF1010CF8
:10183000013B8C4411F8012B614503F8012FF9D1CC
:10184000704740EA01039B0750D1A2F1100370B525
:1018500001F1200C23F00F0501F1100E00F110042E
:10186000AC441B095EF8105C0EF1100E44F8105CDD
:101870005EF81C5C103444F81C5C5EF8185C44F89C
:10188000185C5EF8145CE64544F8145CEAD1013358
:1018900012F00C0F01EB031102F00F0400EB031325
:1018A00028D08E46043C24F003064FEA940C1E44D4
:1018B0001C1F5EF8045B44F8045FB442F9D10CF1DC
:1018C000010402F0030203EB840301EB840102F143
:1018D000FF3C4AB10CF1010C013B8C4411F8012B87
:1018E000614503F8012FF9D170BD7047034602F13D
:1018F000FF3C9BE72246EAE770B50026074D044609
:10190000084611462E6002F07EFE431C00D070BDDA
:101910002B68002BFBD0236070BD00BFDC010020D2
:10192000002238B5064D044608462A6002F070FED3
:10193000431C00D038BD2B68002BFBD0236038BD82
:10194000DC010020002238B5064D044608462A6016
:1019500002F014FE431C00D038BD2B68002BFBD0D6
:10196000236038BDDC0100205FFA81FC810744D090
:101970000346511E22B909E09A0709D0013905D35F
:101980001846027801336245F6D17047002070474F
:10199000184603290CD80029F8D00346014401E079
:1019A0008B42F3D0184613F8012B6245F8D17047EB
:1019B00010B50CEB0C24024604EB044402E004399D
:1019C000032915D9104652F8043B6340A3F1013EA8
:1019D0002EEA030313F0803FF1D00346014401E0F7
:1019E0008B4208D0184613F8012B6245F8D110BD80
:1019F00010460029F1D1002010BD1146C9E700BFF3
:101A0000844641EA000313F0030349D1403A23D34B
:101A10000B6803604B6843608B688360CB68C3606E
:101A20000B6903614B6943618B698361CB69C36156
:101A30000B6A03624B6A43628B6A8362CB6AC3623E
:101A40000B6B03634B6B43638B6B8363CB6BC36326
:101A500040304031403ADBD230320BD30B68036068
:101A60004B6843608B688360CB68C3601030103173
:101A7000103AF3D20C3205D351F8043B40F8043B42
:101A8000043AF9D2043208D0D2071CBF11F8013B46
:101A900000F8013B01D30B8803806046704700BF0C
:101AA000082A13D38B07B1D010F00303AED0C3F1D3
:101AB0000403D21ADB071CBF11F8013B00F8013BFD
:101AC000A4D331F8023B20F8023B9FE7043AD9D374
:101AD000013A11F8013B00F8013BF9D20B78037091
:101AE0004B7843708B788370604670472DE9F041E6
:101AF000144641B30AB306460D4600F029F8844265
:101B0000074602D8B4EB500F13D821463046FEF7F3
:101B1000A9FF804650B1BC422246294628BF3A461A
:101B2000FFF76EFF29463046FEF718FF4046BDE836
:101B3000F081A8464046BDE8F081A046FEF70EFFC2
:101B40004046BDE8F0811146BDE8F041FEF78ABF8E
:101B500051F8043C181F002BBCBF0B58C01870472D
:101B6000F8B504460D4600F02FF8224606460F460B
:101B70002B462046294601F0EBF940B9204629467C
:101B800000F018F80022084B01F0D8F910B93046DF
:101B90003946F8BDFEF7A0FE2122034603481A602D
:101BA000BDE8F84000F00AB80000F03FC48F00081C
:101BB00000F032BA21F00043194670470020014975
:101BC000704700BF0000F87F2DE9F04FBE4B21F0B9
:101BD0000048984504460D4685B028D908F140488C
:101BE00008F5801858EA00080AD002460B4600F0B3
:101BF0005DFD02460B4601F03BF805B0BDE8F08FF5
:101C000095A3D3E9002300F009FF95A3D3E90023AE
:101C100006460F462046294600F000FF02460B46C6
:101C20003046394600F044FD05B0BDE8F08FA74BC3
:101C30008A4698450FD8B8F1795F80F04F818AA322
:101C4000D3E9002300F034FD0022A14B01F076F926
:101C5000002840F0FE8020462946FFF7ABFF0246F1
:101C60000B4600209A4900F021FD0022994B00F01C
:101C7000D5FE7FA3D3E9002304460D4600F0CEFE37
:101C80007DA3D3E9002300F013FD22462B4600F08C
:101C9000C5FE7BA3D3E9002300F008FD22462B46B6
:101CA00000F0BCFE78A3D3E9002300F001FD22463A
:101CB0002B4600F0B3FE76A3D3E9002300F0F6FC38
:101CC00022462B4600F0AAFE73A3D3E9002300F0BE
:101CD000EFFC22462B4600F0A1FE71A3D3E90023BE
:101CE000CDE900012046294600F098FE6EA3D3E915
:101CF000002300F0DBFC22462B4600F08FFE6CA395
:101D0000D3E9002300F0D4FC22462B4600F086FEE7
:101D100069A3D3E9002300F0C9FC22462B4600F05A
:101D20007DFE00226A4B00F0C3FCCDE90201204693
:101D3000294600F0CFFBDFF8A0C10646E0450F467C
:101D400068D802460B4600F0B3FCDDE902238C465E
:101D50008346DDE90001CDE900BC00F089FF0246C1
:101D60000B46DDE9000100F059FE4FF00008CDE917
:101D7000000142463B464046394600F04FFE0246CF
:101D80000B462046294600F091FC424604460D468B
:101D90003B463046394600F08BFC02460B46204657
:101DA000294600F065FF02460B4600F081FC024622
:101DB0000B462BA1D1E9000100F078FC02460B464E
:101DC000DDE9000100F072FC424604460D463B4648
:101DD0004046394600F06CFC02460B4638A1D1E97A
:101DE000000100F063FC02460B462046294600F045
:101DF0005DFC02460B4632A1D1E9000100F056FC21
:101E0000BAF1000F3FF7F9AE01F10043194605B0F2
:101E1000BDE8F08FDDE90223DDE9000100F028FFD5
:101E200032463B4600F0FAFD32463B4600F040FCAD
:101E300002460B4600F03CFC09A3D3E9002300F066
:101E400035FC02460B4604A1D1E9000100F02EFC4E
:101E5000D6E720462946D0E6182D4454FB21F93F09
:101E6000075C143326A6913C9C7500883CE4377EC1
:101E700009F7FD0DE13D023F88B20175E0EF493FF2
:101E80003B8F68B52882A43F5544880E55C1C93F91
:101E90007D6FEB0312D6D43F555555555555C53F6B
:101EA00082922EB1C5B8B33F59018D1B6C06E63F37
:101EB000C88A599CE52A00404B2D8A1C273A0340CA
:101EC000182D4454FB21E93FFFFFEF3FFFFFDF3FA9
:101ED0000000F03F0000E03F3233EF3F02460B4688
:101EE00000F09CFD36A3D3E9002306460F4600F020
:101EF00095FD35A3D3E9002300F0DAFB32463B46DB
:101F000000F08CFD32A3D3E9002300F0CFFB324672
:101F10003B4600F083FD30A3D3E9002300F0C8FB6B
:101F200032463B4600F07AFD2DA3D3E9002300F0B2
:101F3000BDFB32463B4600F071FD2BA3D3E90023E5
:101F400000F0B6FB32463B4600F068FD28A3D3E91B
:101F50000023804689463046394600F05FFD26A3BF
:101F6000D3E9002300F0A2FB32463B4600F056FDC9
:101F700023A3D3E9002300F09BFB32463B4600F04D
:101F80004DFD21A3D3E9002300F090FB32463B46F0
:101F900000F044FD00221E4B00F08AFB02460B4677
:101FA0004046494600F064FE22462B4600F036FDCE
:101FB00022462B4600F07CFB05B0BDE8F08F00BF49
:101FC00009F7FD0DE13D023F88B20175E0EF493FA1
:101FD0003B8F68B52882A43F5544880E55C1C93F40
:101FE0007D6FEB0312D6D43F555555555555C53F1A
:101FF00082922EB1C5B8B33F59018D1B6C06E63FE6
:10200000C88A599CE52A00404B2D8A1C273A034078
:102010000000F03F000000002DE9F84F99465342C0
:102020005F4F134329F0004E4EEAD373BB42044680
:102030000D4690463DD84642064321F0004A4AEA02
:10204000D676BE4203468B4633D809F1404606F5A4
:10205000801616433DD04FEAA97606F002065AEAEA
:10206000030346EAD1762CD05EEA020235D0BE45A3
:1020700046D0BA4531D0AAEB0E0ABAF1747F4FEAC6
:102080002A5339DAB9F1000F46DA3C3344DA00203A
:102090000021012E58D0022E49D086B134A3D3E9B5
:1020A000002300F003FB34A3D3E9002300F0FEFA81
:1020B00005E022462B464046494600F0F9FABDE8C5
:1020C000F88F022E10D0032EF9D12DA1D1E90001F5
:1020D000F5E7BDE8F84F00F067B8BBF1000F07DB8C
:1020E00029A1D1E90001EAE723A1D1E90001E6E74E
:1020F00027A1D1E90001E2E723A1D1E90001C8E766
:10210000F24506F1FF3623D0022E29D8254B03EBEA
:10211000C603D3E90601D2E742464B46204629468C
:1021200000F0A6FDFFF746FD00F03EF8B1E710A372
:10213000D3E9002300F0BAFA02460B460EA1D1E91A
:10214000000100F0B3FABAE701F100431946B6E71F
:10215000022E08D8134B03EBC603D3E90001AEE708
:1021600000200021ABE70CA1D1E90001A7E700BFE7
:10217000075C143326A6A13C182D4454FB210940CA
:10218000182D4454FB2109C0182D4454FB21F93F5C
:10219000182D4454FB21F9BF182D4454FB21E93F6D
:1021A0000000F07F708E00082DE9F84FC04B21F041
:1021B00000469E4204460D468A4616D9BD4B9E42B5
:1021C0000BD808D0BAF1000F40F3BF809CA1D1E931
:1021D0000001BDE8F88F0028F4D022462B462046A7
:1021E000294600F065FABDE8F88FB34B9E4200F235
:1021F000B180A3F1DE739E4240F298804FF0FF3B26
:1022000022462B462046294600F008FC02460B4693
:102210008046894600F002FC8BA3D3E900230646E2
:102220000F4600F0FBFB8AA3D3E9002300F040FA3D
:1022300032463B4600F0F2FB87A3D3E9002300F0CF
:1022400037FA32463B4600F0E9FB85A3D3E9002389
:1022500000F02EFA32463B4600F0E0FB82A3D3E9C1
:10226000002300F025FA32463B4600F0D7FB80A35E
:10227000D3E9002300F01CFA42464B4600F0CEFBA7
:102280007DA3D3E90023804689463046394600F0D5
:10229000C5FB7BA3D3E9002300F008FA32463B4696
:1022A00000F0BCFB78A3D3E9002300F0FFF932462D
:1022B0003B4600F0B3FB76A3D3E9002300F0F6F928
:1022C00032463B4600F0AAFB73A3D3E9002300F09B
:1022D000EDF932463B4600F0A1FB02460B46404674
:1022E000494600F0E5F922462B4600F097FBBBF18A
:1022F000FF3F02460B4656D0704E06EBCB06D6E9A2
:10230000082300F0D3F922462B4600F0CFF902460D
:102310000B46D6E9000100F0C9F9BAF1000FBFF68B
:1023200062AF01F100431946BDE8F88F5CA3D3E921
:10233000002300F0BDF90022614B00F0FFFD0028F2
:102340003FF45CAF204629464DE757A1D1E9000193
:10235000BDE8F88FFFF72EFC5A4B04469E420D460F
:1023600027D8A3F550239E424ED802460B4600F0D4
:102370009FF90022524B00F099F902460B46204685
:10238000294614461D4600224FF0804300F090F984
:1023900002460B462046294600F06AFC4FF0000B2F
:1023A00004460D462CE72046294600F07FF9BDE89B
:1023B000F88F454B9E421CD20022444B00F076F928
:1023C00002460B462046294614461D4600223F4B36
:1023D00000F024FB00223A4B00F06AF902460B465B
:1023E0002046294600F044FC4FF0020B04460D46FF
:1023F00006E702460B460020354900F039FC4FF055
:10240000030B04460D46FBE600222D4B00F04EF96F
:1024100002460B462046294614461D460022284BFC
:1024200000F046F902460B462046294600F020FC03
:102430004FF0010B04460D46E2E600BFAFF300800B
:10244000182D4454FB21F93F11DA22E33AAD903FB5
:10245000EB0D76244B7BA93F513DD0A0660DB13FDB
:102460006E204CC5CD45B73FFF8300922449C23F43
:102470000D5555555555D53F2F6C6A2C44B4A2BF08
:102480009AFDDE522DDEAD3F6D9A74AFF2B0B33FD0
:10249000711623FEC671BC3FC4EB98999999C93F48
:1024A0009C7500883CE4377E182D4454FB21F9BF0D
:1024B000FFFF0F440000F07FFFFFDB3FA08E00080E
:1024C0000000F03FFFFFF23F008003400000F83FB4
:1024D0000000F0BF714A2DE9F0478A4306460F46D7
:1024E00000F0A78000290C46034655DD081562D090
:1024F000C4F31302C107A0F2FF3742F4801203D4E1
:10250000D90F01EB42025B00002616244FF40011A4
:10251000B446520002EBD3727F105B000CEB01005B
:1025200090424FEAD3754FEA430303DC00EB010C02
:10253000121A0E44013C05EB42024FEA5101EDD163
:1025400020254FF00040A0460AE043D0510001EBA7
:10255000D371013D0A464FEA43034FEA500045D08C
:10256000944508EB000EF0DABEF1000F0EEB000808
:102570000CDBE146A2EB0C01CC469E4588BF01F185
:10258000FF314900A3EB0E030444E0E7B8F1000F6C
:10259000EFDB0CF10109EDE721F00042024342D0EC
:1025A000002969D1DA0A153C5B05002AFAD0D60267
:1025B00020466AD4144600226400E502114602F166
:1025C0000102F9D5C2F1200523FA05F52C43934009
:1025D000401A8DE79E4502D94FEA4C01B7E7BEF19C
:1025E000000F0EEB000820DB0021CBE7194310D0D1
:1025F000DFF8ACA0DAE90001DAE9022300F056F8CE
:10260000DAE9008902460B464046494600F082FC62
:10261000C8B96508731003F17F5303F5001303EB8A
:10262000075145EAC670BDE8F087B8F1000FB0DA8F
:10263000DAE702460B4600F0F1F932463B4600F07D
:1026400037F8BDE8F087B4F1FF3FDAE90001DAE9D5
:1026500002231ED0DAE9008900F02AF802460B4670
:102660004046494600F04CFCA8B1A31C04F1020509
:1026700008BF01366D08CDE702460B4600F016F89C
:1026800002460B4600F0F4FACDE74FF0FF31144656
:102690009EE70136BEE70134BBE700BF0000F07FD4
:1026A000E08E000881F0004102E000BF83F00043AB
:1026B00030B54FEA41044FEA430594EA050F08BFDD
:1026C00090EA020F1FBF54EA000C55EA020C7FEAA1
:1026D000645C7FEA655C00F0E2804FEA5454D4EB1E
:1026E0005555B8BF6D420CDD2C4480EA020281EAE8
:1026F000030382EA000083EA010180EA020281EA20
:102700000303362D88BF30BD11F0004F4FEA013171
:102710004FF4801C4CEA113102D0404261EB410180
:1027200013F0004F4FEA03334CEA133302D0524206
:1027300063EB430394EA050F00F0A780A4F10104C2
:10274000D5F1200E0DDB02FA0EFC22FA05F28018FC
:1027500041F1000103FA0EF2801843FA05F35941E2
:102760000EE0A5F120050EF1200E012A03FA0EFC61
:1027700028BF4CF0020C43FA05F3C01851EBE3718B
:1027800001F0004507D54FF0000EDCF1000C7EEBA8
:1027900000006EEB0101B1F5801F1BD3B1F5001FE6
:1027A0000CD349085FEA30004FEA3C0C04F1010405
:1027B0004FEA445212F5800F80F09A80BCF1004F2E
:1027C00008BF5FEA500C50F1000041EB045141EAB0
:1027D000050130BD5FEA4C0C404141EB0101013C79
:1027E00028BFB1F5801FE9D291F0000F04BF014668
:1027F0000020B1FA81F308BF2033A3F10B03B3F13A
:1028000020020CDA0C3208DD02F1140CC2F10C02C9
:1028100001FA0CF021FA02F10CE002F11402D8BF27
:10282000C2F1200C01FA02F120FA0CFCDCBF41EAF3
:102830000C019040E41AA2BF01EB0451294330BDC2
:102840006FEA04041F3C1CDA0C340EDC04F114049F
:10285000C4F1200220FA04F001FA02F340EA030076
:1028600021FA04F345EA030130BDC4F10C04C4F1BC
:10287000200220FA02F001FA04F340EA030029469C
:1028800030BD21FA04F0294630BD94F0000F83F4E6
:10289000801306BF81F480110134013D4EE77FEAC9
:1028A000645C18BF7FEA655C29D094EA050F08BF15
:1028B00090EA020F05D054EA000C04BF19461046F6
:1028C00030BD91EA030F1EBF0021002030BD5FEA3A
:1028D000545C05D14000494128BF41F0004130BD62
:1028E00014F580043CBF01F5801130BD01F00045B6
:1028F00045F0FE4141F470014FF0000030BD7FEA29
:10290000645C1ABF194610467FEA655C1CBF0B4623
:10291000024650EA013406BF52EA033591EA030F3A
:1029200041F4002130BD00BF90F0000F04BF002132
:10293000704730B54FF4806404F132044FF0000565
:102940004FF0000150E700BF90F0000F04BF0021DE
:10295000704730B54FF4806404F1320410F0004544
:1029600048BF40424FF000013EE700BF42004FEA3F
:10297000E2014FEA31014FEA02701FBF12F07F43BC
:1029800093F07F4F81F06051704732F07F4208BF73
:10299000704793F07F4F04BF41F40021704730B57A
:1029A0004FF4607401F0004521F000411CE700BFC6
:1029B00050EA010208BF704730B54FF000050AE049
:1029C00050EA010208BF704730B511F0004502D54A
:1029D000404261EB41014FF4806404F132045FEA4C
:1029E000915C3FF4D8AE4FF003025FEADC0C18BFF5
:1029F00003325FEADC0C18BF033202EBDC02C2F1E7
:102A0000200300FA03FC20FA02F001FA03FE40EA78
:102A10000E0021FA02F11444BDE600BF70B54FF07C
:102A2000FF0C4CF4E06C1CEA11541DBF1CEA13555A
:102A300094EA0C0F95EA0C0F00F0DEF82C4481EAC2
:102A4000030621EA4C5123EA4C5350EA013518BFE2
:102A500052EA033541F4801143F4801338D0A0FBCF
:102A600002CE4FF00005E1FB02E506F00042E0FB7C
:102A700003E54FF00006E1FB03569CF0000F18BF82
:102A80004EF0010EA4F1FF04B6F5007F64F540742A
:102A900004D25FEA4E0E6D4146EB060642EAC621BD
:102AA00041EA55514FEAC52040EA5E504FEACE2E2A
:102AB000B4F1FD0C88BFBCF5E06F1ED8BEF1004F2D
:102AC00008BF5FEA500E50F1000041EB045170BDA9
:102AD00006F0004646EA010140EA020081EA0301ED
:102AE000B4EB5C04C2BFD4EB0C0541EA045170BDE9
:102AF00041F480114FF0000E013C00F3AB8014F163
:102B0000360FDEBF002001F0004170BDC4F10004AB
:102B1000203C35DA0C341BDC04F11404C4F120052C
:102B200000FA05F320FA04F001FA05F240EA020087
:102B300001F0004221F0004110EBD37021FA04F6BD
:102B400042EB06015EEA430E08BF20EAD37070BD77
:102B5000C4F10C04C4F1200500FA04F320FA05F0D6
:102B600001FA04F240EA020001F0004110EBD370D8
:102B700041F100015EEA430E08BF20EAD37070BD48
:102B8000C4F1200500FA05F24EEA020E20FA04F321
:102B900001FA05F243EA020321FA04F001F00041D0
:102BA00021FA04F220EA020000EBD3705EEA430E41
:102BB00008BF20EAD37070BD94F0000F0FD101F070
:102BC0000046400041EB010111F4801F08BF013CA9
:102BD000F7D041EA060195F0000F18BF704703F0E7
:102BE0000046520043EB030313F4801F08BF013D6E
:102BF000F7D043EA0603704794EA0C0F0CEA13552A
:102C000018BF95EA0C0F0CD050EA410618BF52EAE3
:102C10004306D1D181EA030101F000414FF00000E9
:102C200070BD50EA410606BF1046194652EA4306F7
:102C300019D094EA0C0F02D150EA013613D195EA6B
:102C40000C0F05D152EA03361CBF104619460AD1B3
:102C500081EA030101F0004141F0FE4141F47001BD
:102C60004FF0000070BD41F0FE4141F4780170BDAD
:102C700070B54FF0FF0C4CF4E06C1CEA11541DBF12
:102C80001CEA135594EA0C0F95EA0C0F00F0A7F814
:102C9000A4EB050481EA030E52EA03354FEA013141
:102CA00000F088804FEA03334FF0805545EA131354
:102CB00043EA12634FEA022245EA111545EA10651C
:102CC0004FEA00260EF000419D4208BF964244F1B3
:102CD000FD0404F5407402D25B084FEA3202B61AD2
:102CE00065EB03055B084FEA32024FF480104FF4A6
:102CF000002CB6EB020E75EB030E22BFB61A75461A
:102D000040EA0C005B084FEA3202B6EB020E75EBAC
:102D1000030E22BFB61A754640EA5C005B084FEA14
:102D20003202B6EB020E75EB030E22BFB61A7546E1
:102D300040EA9C005B084FEA3202B6EB020E75EBEC
:102D4000030E22BFB61A754640EADC0055EA060EAD
:102D500018D04FEA051545EA16754FEA06164FEAF0
:102D6000C30343EA52734FEAC2025FEA1C1CC0D19C
:102D700011F4801F0BD141EA00014FF000004FF029
:102D8000004CB6E711F4801F04BF01430020B4F1EA
:102D9000FD0C88BFBCF5E06F3FF6AFAEB5EB030CA2
:102DA00004BFB6EB020C5FEA500C50F1000041EB9F
:102DB000045170BD0EF0004E4EEA113114EB5C046C
:102DC000C2BFD4EB0C0541EA045170BD41F480113F
:102DD0004FF0000E013C90E645EA060E8DE60CEA47
:102DE000135594EA0C0F08BF95EA0C0F3FF43BAF64
:102DF00094EA0C0F0AD150EA01347FF434AF95EA1B
:102E00000C0F7FF425AF104619462CE795EA0C0FFE
:102E100006D152EA03353FF4FDAE1046194622E7CB
:102E200050EA410618BF52EA43067FF4C5AE50EAA5
:102E300041047FF40DAF52EA43057FF4EBAE12E795
:102E40004FF0FF3C06E000BF4FF0010C02E000BF76
:102E50004FF0010C4DF804CD4FEA410C7FEA6C5C59
:102E60004FEA430C18BF7FEA6C5C1BD001B050EAFC
:102E7000410C0CBF52EA430C91EA030F02BF90EAE7
:102E8000020F0020704710F1000F91EA030F58BFA6
:102E9000994208BF90422CBFD8176FEAE37040F008
:102EA000010070474FEA410C7FEA6C5C02D150EAA6
:102EB000013C07D14FEA430C7FEA6C5CD6D152EA61
:102EC000033CD3D05DF8040B704700BF8446104626
:102ED00062468C461946634600E000BF01B5FFF725
:102EE000B7FF002848BF10F1000F01BD4DF808EDF5
:102EF000FFF7F4FF0CBF012000205DF808FB00BFC6
:102F00004DF808EDFFF7EAFF34BF012000205DF81F
:102F100008FB00BF4DF808EDFFF7E0FF94BF01206C
:102F200000205DF808FB00BF4DF808EDFFF7CEFF6D
:102F300094BF012000205DF808FB00BF4DF808EDAC
:102F4000FFF7C4FF34BF012000205DF808FB00BF7D
:102F50004FEA410C7FEA6C5C02D150EA013C0AD195
:102F60004FEA430C7FEA6C5C02D152EA033C02D187
:102F70004FF0000070474FF0010070474FEA4102E8
:102F8000B2F1E04324BFB3F5001CDCF1FE5C0DD9C7
:102F900001F0004C4FEAC0024CEA5070B2F1004F11
:102FA00040EB830008BF20F00100704711F0804F14
:102FB00021D113F13872BCBF01F00040704741F4D9
:102FC00080114FEA5252C2F11802C2F1200C10FADD
:102FD0000CF320FA02F018BF40F001004FEAC123C1
:102FE0004FEAD32303FA0CFC40EA0C0023FA02F365
:102FF0004FEA4303CCE77FEA625307D150EA01333B
:103000001EBF4FF0FE4040F44000704701F000400A
:1030100040F0FE4040F40000704700BF80F00040E8
:1030200002E000BF81F0004142001FBF5FEA4103A0
:1030300092EA030F7FEA226C7FEA236C6AD04FEAA0
:103040001262D2EB1363C1BFD218414048404140E5
:10305000B8BF5B42192B88BF704710F0004F40F497
:10306000000020F07F4018BF404211F0004F41F4B3
:10307000000121F07F4118BF494292EA030F3FD07F
:10308000A2F1010241FA03FC10EB0C00C3F1200392
:1030900001FA03F100F0004302D5494260EB400021
:1030A000B0F5000F13D3B0F1807F06D340084FEA8C
:1030B000310102F10102FE2A51D2B1F1004F40EB81
:1030C000C25008BF20F0010040EA030070474900E9
:1030D00040EB0000013A28BFB0F5000FEDD2B0FA86
:1030E00080FCACF1080CB2EB0C0200FA0CF0AABFA9
:1030F00000EBC25052421843BCBFD0401843704747
:1031000092F0000F81F4000106BF80F4000001324C
:10311000013BB5E74FEA41037FEA226C18BF7FEA23
:10312000236C21D092EA030F04D092F0000F08BF65
:103130000846704790EA010F1CBF0020704712F04C
:103140007F4F04D1400028BF40F00040704712F18B
:1031500000723CBF00F50000704700F0004343F0F0
:10316000FE4040F4000070477FEA226216BF084626
:103170007FEA23630146420206BF5FEA412390EAE9
:10318000010F40F4800070474FF0000304E000BFDF
:1031900010F0004348BF40425FEA000C08BF704790
:1031A00043F0964301464FF000001CE050EA010254
:1031B00008BF70474FF000030AE000BF50EA010269
:1031C00008BF704711F0004302D5404261EB410156
:1031D0005FEA010C02BF84460146002043F0B6437B
:1031E00008BFA3F18053A3F50003BCFA8CF2083AA0
:1031F000A3EBC25310DB01FA02FC634400FA02FCA9
:10320000C2F12002BCF1004F20FA02F243EB0200AF
:1032100008BF20F00100704702F1200201FA02FC11
:10322000C2F1200250EA4C0021FA02F243EB020004
:1032300008BF20EADC7070474FF0FF0C1CEAD05248
:103240001EBF1CEAD15392EA0C0F93EA0C0F6FD009
:103250001A4480EA010C400218BF5FEA41211ED0E7
:103260004FF0006343EA501043EA5111A0FB0131D3
:103270000CF00040B1F5000F3EBF490041EAD371A8
:103280005B0040EA010062F17F02FD2A1DD8B3F124
:10329000004F40EBC25008BF20F00100704790F093
:1032A000000F0CF0004C08BF49024CEA502040EAE5
:1032B00051207F3AC2BFD2F1FF0340EAC2507047AB
:1032C00040F400004FF00003013A5DDC12F1190FE9
:1032D000DCBF00F000407047C2F10002410021FA5B
:1032E00002F1C2F1200200FA02FC5FEA310040F173
:1032F000000053EA4C0308BF20EADC70704792F0EC
:10330000000F00F0004C02BF400010F4000F013A23
:10331000F9D040EA0C0093F0000F01F0004C02BF1E
:10332000490011F4000F013BF9D041EA0C018FE78D
:103330000CEAD15392EA0C0F18BF93EA0C0F0AD093
:1033400030F0004C18BF31F0004CD8D180EA0100B9
:1033500000F00040704790F0000F17BF90F0004F52
:10336000084691F0000F91F0004F14D092EA0C0F34
:1033700001D142020FD193EA0C0F03D14B0218BFC7
:10338000084608D180EA010000F0004040F0FE400D
:1033900040F40000704740F0FE4040F440007047A9
:1033A0004FF0FF0C1CEAD0521EBF1CEAD15392EA28
:1033B0000C0F93EA0C0F69D0A2EB030280EA010C18
:1033C00049024FEA402037D04FF0805343EA1111B1
:1033D00043EA10130CF000408B4238BF5B0042F10F
:1033E0007D024FF4000C8B4224BF5B1A40EA0C00B4
:1033F000B3EB510F24BFA3EB510340EA5C00B3EBE6
:10340000910F24BFA3EB910340EA9C00B3EBD10FD3
:1034100024BFA3EBD10340EADC001B0118BF5FEA25
:103420001C1CE0D1FD2A3FF650AF8B4240EBC2504E
:1034300008BF20F0010070470CF0004C4CEA50200F
:103440007F32C2BFD2F1FF0340EAC250704740F45E
:1034500000004FF00003013A37E792F0000F00F050
:10346000004C02BF400010F4000F013AF9D040EACE
:103470000C0093F0000F01F0004C02BF490011F462
:10348000000F013BF9D041EA0C0195E70CEAD1535A
:1034900092EA0C0F08D142027FF47DAF93EA0C0F41
:1034A0007FF470AF084676E793EA0C0F04D14B0225
:1034B0003FF44CAF08466EE730F0004C18BF31F0D7
:1034C000004CCAD130F000427FF45CAF31F00043D1
:1034D0007FF43CAF5FE700BF4FF0FF3C06E000BF6A
:1034E0004FF0010C02E000BF4FF0010C4DF804CD8D
:1034F0004FEA40024FEA41037FEA226C18BF7FEA9D
:10350000236C11D001B052EA530C18BF90EA010F9E
:1035100058BFB2EB030088BFC81738BF6FEAE1702D
:1035200018BF40F0010070477FEA226C02D15FEAC9
:10353000402C05D17FEA236CE4D15FEA412CE1D035
:103540005DF8040B704700BF844608466146FFE7FC
:103550000FB5FFF7C9FF002848BF10F1000F0FBDDE
:103560004DF808EDFFF7F4FF0CBF012000205DF8D7
:1035700008FB00BF4DF808EDFFF7EAFF34BF01205C
:1035800000205DF808FB00BF4DF808EDFFF7E0FFF5
:1035900094BF012000205DF808FB00BF4DF808ED46
:1035A000FFF7D2FF94BF012000205DF808FB00BFA9
:1035B0004DF808EDFFF7C8FF34BF012000205DF88B
:1035C00008FB00BF4FEA4002B2F1FE4F0FD34FF0AD
:1035D0009E03B3EB12620DD94FEA002343F0004380
:1035E00010F0004F23FA02F018BF404270474FF02E
:1035F0000000704712F1610F01D1420205D110F0B5
:10360000004008BF6FF0004070474FF00000704767
:1036100042000ED2B2F1FE4F0BD34FF09E03B3EB3C
:10362000126209D44FEA002343F0004323FA02F068
:1036300070474FF00000704712F1610F01D1420254
:1036400002D14FF0FF3070474FF00000704700BFCD
:103650007BB972B90029BEBF00204FF0004106E0DF
:1036600008BF00281CBF6FF000414FF0FF3000F092
:103670003FB8ADF1080C6DE904CE002909DB002B41
:103680001ADB05F096FADDF804E0DDE9022304B068
:103690007047404261EB4101002B1BDB05F089FACA
:1036A000DDF804E0DDE9022304B0404261EB4101B2
:1036B000524263EB43037047524263EB430305F00E
:1036C00078FADDF804E0DDE9022304B0404261EB62
:1036D00041017047524263EB430305F06AFADDF89B
:1036E00004E0DDE9022304B0524263EB4303704778
:1036F000704700BF10B5054C237833B9044B13B1A4
:103700000448AFF300800123237010BD080200209D
:1037100000000000548E000808B5034B1BB103499C
:103720000348AFF3008008BD000000000C02002039
:10373000548E0008012800D07047024A13880133D4
:103740001380F9E724020020704772B6FEE700B547
:1037500091B02822002106A8FDF71AF80023019352
:103760000293039304930593012206924FF480334E
:1037700007930A9202220D920E934FF4E0130F93D7
:1037800006A800F0D9F980B90F2301930221029114
:10379000002303934FF480620492059301A800F084
:1037A000FDFB20B911B05DF804FBFFF7CEFFFFF77A
:1037B000CCFF000010B500F071F9FFF7C8FF00F072
:1037C00063F804F037F804F06BF804F087F904F0BC
:1037D0009FF804F097FE03F013FE03F00BFF03F0D5
:1037E00019FE03F091FE04F01DF801F063F800F0FB
:1037F000C7FF01221A491B4805F0A3F91A4A012103
:10380000084601F009F8194A0121022001F004F8E4
:10381000174C184A1849204603F0BAFA174A1849B3
:10382000184803F00CFD03F0F9FEFFF7CBFE02464B
:1038300005230821012001F00BF82068FFF7C2FEE4
:10384000024605230821022001F002F803F0AEFF32
:103850004FF4FA71084603F04FFE03F081FED7E7FC
:103860007102002094030020F08E0008F48E0008FE
:10387000340200202C02002030020020260200200A
:10388000280200202A0200202DE9F04389B00024FC
:103890000494059406940794464B9A6942F01002EA
:1038A0009A619A6902F010020092009A9A6942F0B5
:1038B00020029A619A6902F020020192019A9A69A3
:1038C00042F004029A619A6902F004020292029A9A
:1038D0009A6942F008029A619B6903F00803039316
:1038E000039B354E22464FF42041304600F047FD01
:1038F000DFF8C89022463021484600F040FD304FA6
:1039000022464FF60351384600F039FD4FF400537C
:1039100004930125059506944FF00208CDF81C800C
:1039200004A9304600F016FC4FF48043049305943C
:10393000069504A9304600F00DFC4FF400430493B3
:10394000059506940323079304A9304600F002FC72
:1039500004951C4B0593069504A9484600F0FAFB14
:103960003023049305950694CDF81C8004A948469D
:1039700000F0F0FB4FF60353049305950694CDF841
:103980001C8004A9384600F0E5FB4FF40073049353
:103990000594069504A9384600F0DCFB2246214632
:1039A000062000F0B7FD062000F0C4FD09B0BDE818
:1039B000F08300BF001002400010014000080140E9
:1039C000000C014000001110FEE7FEE7FEE7FEE7F5
:1039D000FEE770477047704708B500F071F808BD02
:1039E00008B5012000F0D2FC08BD000008B502486F
:1039F00004F0A0F908BD00BF0403002008B5024888
:103A000004F042FF08BD00BF9403002082B00E4BBB
:103A10009A6942F001029A619A6902F001020092E9
:103A2000009ADA6942F08052DA61DB6903F0805370
:103A30000193019B054A536823F0E06343F0007350
:103A4000536002B0704700BF001002400000014008
:103A500010B504460E4B1A784FF47A73B3FBF2F3A9
:103A60000C4A1068B0FBF3F000F072FD68B90F2C3F
:103A700001D901200AE0002221464FF0FF3000F07A
:103A800049FD054B1C60002000E0012010BD00BF77
:103A90005C000020640000206000002008B5074A98
:103AA000136843F010031360032000F021FD002091
:103AB000FFF7CEFFFFF7AAFF002008BD002002405D
:103AC000034A1168034B1B780B441360704700BF17
:103AD000380200205C000020014B1868704700BFCE
:103AE0003802002038B50446FFF7F6FF0546B4F16A
:103AF000FF3F02D0044B1B781C44FFF7EDFF401B37
:103B0000A042FAD338BD00BF5C00002082B0084B51
:103B10001B68084AA2FB03235B0A00FB03F3019323
:103B200000BF019B5A1E0192002BF9D102B07047D1
:103B300064000020D34D6210002800F0F18170B5C0
:103B400082B00446036813F0010F2CD0994B5B68D8
:103B500003F00C03042B1DD0964B5B6803F00C03A1
:103B6000082B12D06368B3F5803F41D0002B55D1AC
:103B700003F1804303F504331A6822F480321A609B
:103B80001A6822F480221A6037E08A4B5B6813F4CB
:103B9000803FE7D0874B1B6813F4003F03D0636876
:103BA000002B00F0BF81236813F0020F75D0814B0A
:103BB0005B6813F00C0F5FD07E4B5B6803F00C0367
:103BC000082B54D02369002B00F08A807A4B012205
:103BD0001A60FFF781FF0546764B1B6813F0020F52
:103BE00075D1FFF779FF401B0228F5D903209EE12C
:103BF000704A136843F480331360636843B3FFF77C
:103C00006BFF05466B4B1B6813F4003FCBD1FFF7EE
:103C100063FF401B6428F5D9032088E1B3F5A02F8A
:103C200009D0644B1A6822F480321A601A6822F4B0
:103C300080221A60E1E703F18043A3F53C331A6860
:103C400042F480221A601A6842F480321A60D4E783
:103C5000FFF742FF0546574B1B6813F4003FA2D005
:103C6000FFF73AFF401B6428F5D903205FE1514B71
:103C70005B6813F4803FA5D14E4B1B6813F0020F15
:103C800003D02369012B40F04F814A4A136823F087
:103C9000F803616943EAC1031360236813F0080F56
:103CA00033D0A369002B5CD0434B0122C3F880249E
:103CB000FFF712FF05463F4B5B6A13F0020F21D15D
:103CC000FFF70AFF401B0228F5D903202FE1394AEC
:103CD000136823F0F803616943EAC1031360DCE76A
:103CE000354B00221A60FFF7F7FE0546314B1B6883
:103CF00013F0020FD1D0FFF7EFFE401B0228F5D9D9
:103D0000032014E10120FFF701FF236813F0040FE3
:103D100000F09680274BDB6913F0805F34D1254B90
:103D2000DA6942F08052DA61DB6903F08053019373
:103D3000019B0125214B1B6813F4807F26D0E3688B
:103D4000012B3DD0002B53D103F1804303F5043305
:103D50001A6A22F001021A621A6A22F004021A6236
:103D600033E0154B0022C3F88024FFF7B5FE05466B
:103D7000104B5B6A13F0020FC7D0FFF7ADFE401B7C
:103D80000228F5D90320D2E00025D3E70B4A1368B7
:103D900043F480731360FFF79FFE0646074B1B68D2
:103DA00013F4807FCBD1FFF797FE801B6428F5D9F1
:103DB0000320BCE0001002400000424200700040BE
:103DC0005F4A136A43F001031362E36833B3FFF7FA
:103DD00083FE06465A4B1B6A13F0020F2FD1FFF7E2
:103DE0007BFE801B41F288339842F3D903209EE08A
:103DF000052B09D0524B1A6A22F001021A621A6A84
:103E000022F004021A62E0E74D4B1A6A42F0040203
:103E10001A621A6A42F001021A62D6E7FFF75CFEE4
:103E20000646474B1B6A13F0020F08D0FFF754FEFB
:103E3000801B41F288339842F3D9032077E0E5B93B
:103E4000E369002B72D03E4A526802F00C02082A45
:103E500056D0022B17D03B4B00221A66FFF73CFED0
:103E60000446374B1B6813F0007F47D0FFF734FE42
:103E7000001B0228F5D9032059E0314AD36923F009
:103E80008053D361DCE72F4B00221A66FFF724FE34
:103E900005462B4B1B6813F0007F06D0FFF71CFE76
:103EA000401B0228F5D9032041E0236AB3F5803F87
:103EB0001AD023494B6823F47413226A606A0243C0
:103EC00013434B601F4B01221A66FFF705FE0446A1
:103ED0001B4B1B6813F0007F0ED1FFF7FDFD001B8D
:103EE0000228F5D9032022E0154A536823F4003351
:103EF000A1680B435360DCE7002018E0002016E0C7
:103F0000012B16D00E4B5B6803F48031226A91427C
:103F100011D103F47013626A93420ED1002006E0BF
:103F200001207047012002E0012000E0002002B0E3
:103F300070BD0120FBE70120F9E70120F7E700BF92
:103F400000100240000042420F4B5B6803F00C027D
:103F5000082A01D00D487047C3F383420C49885C9E
:103F600013F4803F0BD0084B5B68C3F34043094A0E
:103F7000D35C064A02FB00F0B0FBF3F07047064B3F
:103F800003FB00F0704700BF0010024000127A00EF
:103F9000089000080490000800093D00002800F087
:103FA000A08070B50D460446524B1B6803F0070312
:103FB0008B420BD24F4A136823F007030B43136065
:103FC000136803F007038B4240F08D80236813F0E1
:103FD000020F17D013F0040F04D0474A536843F47C
:103FE000E0635360236813F0080F04D0424A53681B
:103FF00043F460535360404A536823F0F003A168D0
:104000000B435360236813F0010F31D06368012B19
:1040100020D0022B25D0384A126812F0020F64D04B
:1040200035494A6822F0030213434B60FFF754FD01
:104030000646314B5B6803F00C036268B3EB820FFA
:1040400016D0FFF749FD801B41F288339842F0D922
:10405000032045E0284A126812F4003FE0D1012015
:104060003EE0254A126812F0007FD9D1012037E0E6
:10407000204B1B6803F00703AB420AD91D4A1368A3
:1040800023F007032B431360136803F00703AB42CD
:104090002DD1236813F0040F06D0174A536823F478
:1040A000E063E1680B435360236813F0080F07D007
:1040B000114A536823F46053216943EAC1035360F2
:1040C000FFF742FF0C4B5B68C3F303130B4AD35C4F
:1040D000D8400B4B18600B4B1868FFF7B9FC002059
:1040E00070BD012070470120FAE70120F8E70120A8
:1040F000F6E700BF002002400010024020900008B8
:104100006400002060000020014B1868704700BF69
:104110006400002008B5FFF7F7FF044B5B68C3F3AA
:104120000223034AD35CD84008BD00BF0010024000
:104130001890000808B5FFF7E7FF044B5B68C3F36E
:10414000C223034AD35CD84008BD00BF0010024020
:104150001890000870B582B00024A446A1E07E4DFE
:10416000AB4214D00CD8A5F58015AB420FD005F5A5
:104170007025AB420BD0A5F58015AB4210D106E0FF
:10418000764DAB4203D005F58035AB4208D18B6844
:10419000002B50D0012B49D04261082400E0CC68AC
:1041A000BEF1FF0F49D806464FEA8C0233680F254F
:1041B000954023EA050304FA02F2134333604B6887
:1041C00013F0805F6BD0664B9A6942F001029A61EE
:1041D0009B6903F001030193019B4FEA9C02951C2C
:1041E000604B53F825600CF00305AD000F23AB4086
:1041F00026EA03065C4B984226D003F5806398427A
:1042000000F08C8003F58063984200F0898003F50C
:104210008063984216D0042317E0CC680434BFE7CB
:10422000CC680834BCE7CC680C34B9E702610824D8
:10423000B6E70024B4E70424B2E7061DACF1080297
:104240009200B3E7032300E00023AB403343023284
:10425000444D45F822304B6813F4801F62D0434A26
:10426000936843EA0E0393604B6813F4001F5FD01A
:104270003E4AD36843EA0E03D3604B6813F4003F11
:104280005CD03A4A536843EA0E0353604B6813F418
:10429000803F59D0354A136843EA0E0313600CF18E
:1042A000010C0B6833FA0CF254D0012202FA0CF222
:1042B00003EA020E32EA0303F1D14B68122B3FF6F8
:1042C0004EAF122B3FF66CAF01A555F823F000BF9F
:1042D0008F4100089F410008214200083342000836
:1042E000A1410008A1410008A1410008A141000826
:1042F000A1410008A1410008A1410008A141000816
:10430000A1410008A1410008A1410008A141000805
:10431000A14100081B42000827420008012394E73E
:10432000022392E7114A936823EA0E0393609BE706
:104330000E4AD36823EA0E03D3609EE70B4A536804
:1043400023EA0E035360A1E7084A136823EA0E0329
:104350001360A4E702B070BD00002210000031100D
:10436000001002400000014000080140000401402C
:104370008368194201D001207047002070470AB1BC
:1043800001617047090401617047000008B5054BE1
:104390005B69034200D108BD024B5861FFF7CAF9BF
:1043A000F9E700BF00040140034690F82120D2B293
:1043B000022A06D004228263002280F820200120F5
:1043C000704701680A6822F00E020A6001680A68F4
:1043D00022F001020A60026CC06B012101FA02F2B4
:1043E000426083F82110002083F82000704700000D
:1043F00008B590F82130DBB2022B03D0042383638D
:10440000012008BD0268136823F00E0313600268E0
:10441000136823F0010313600368194A934214D010
:10442000143293421FD0143293421ED0143293425E
:104430001ED0143293421ED01432934202D04FF059
:10444000807203E04FF4801200E001220D4B5A60AD
:10445000012380F82130002380F82030436B6BB1BA
:1044600098470020CDE71022F0E74FF48072EDE787
:104470004FF48052EAE74FF48032E7E70020C0E7CC
:104480000800024000000240002808DB0901C9B210
:1044900000F1604000F5614080F80013704700F0C3
:1044A0000F000901C9B2014B1954704714ED00E027
:1044B00000B500F00700C0F1070CBCF1040F28BFE5
:1044C0004FF0040C031D062B0FD9C31E4FF0FF3E07
:1044D0000EFA0CF021EA000199400EFA03FE22EADE
:1044E0000E0241EA02005DF804FB0023EEE7000043
:1044F000074AD36823F4E0631B041B0C000200F49A
:10450000E060034343F0BF6343F40033D36070477C
:1045100000ED00E010B50446054BD868C0F302205A
:10452000FFF7C6FF01462046FFF7AEFF10BD00BFF4
:1045300000ED00E0002807DB00F01F024009012326
:104540009340024A42F82030704700BF00E100E08B
:104550000138B0F1807F0BD24FF0E0235861054A5B
:10456000F02182F823100020986107221A61704719
:104570000120704700ED00E07047000010B50346D1
:104580000C4A0D490D48006840B10C4800680344CE
:10459000521A934206D8094A136010BD0748084CC6
:1045A0000460F2E7FCF798F90C2303604FF0FF304A
:1045B000F3E700BF00500020000400003C02002090
:1045C000E003002070B50C461646002506E0AFF368
:1045D0000080214601F8010B01350C46B542F6DB9F
:1045E000304670BD70B50C461646002504E014F840
:1045F000010BAFF300800135B542F8DB304670BDEA
:104600004FF0FF3070474FF400534B60002070476D
:10461000012070470020704708B500224FF4804108
:104620000148FFF7ACFE08BD000C014008B50122AF
:104630004FF480410148FFF7A2FE08BD000C014085
:1046400008B500224FF400410148FFF798FE08BD6D
:10465000000C014008B501224FF400410148FFF76A
:104660008EFE08BD000C014008B501224FF4807198
:104670000148FFF784FE08BD000C014008B5024662
:104680004FF480510148FFF77AFE08BD000C01404D
:1046900008B502464FF400510148FFF770FE08BD0F
:1046A000000C014008B50120FFF7E8FF0120FFF7EB
:1046B000EFFF08BD08B50120FFF7EAFF0120FFF773
:1046C000DDFF0020FFF7E4FF0020FFF7D7FF08BD64
:1046D00008B50020FFF7DCFF0120FFF7CFFF012026
:1046E000FFF7D6FF08BD38B5054600240CE0802052
:1046F00020412840FFF7CCFF0120FFF7BFFF00203B
:10470000FFF7BCFF0134E4B2072CF0D90120FFF71A
:10471000B5FF0020FFF7B2FF38BD10B50446FFF724
:10472000C9FF7820FFF7DFFF0020FFF7DCFF2046FE
:10473000FFF7D9FFFFF7CCFF10BD10B50446FFF718
:10474000B9FF7820FFF7CFFF4020FFF7CCFF2046CE
:10475000FFF7C9FFFFF7BCFF10BD10B58C1CE4B21A
:10476000013060F04F00C0B2FFF7D7FF200940F0E2
:104770001000FFF7D2FF04F00F00FFF7CEFF10BDCF
:1047800038B5002509E00020FFF7D7FF0134E4B277
:1047900014F0800FF7D00135EDB2072D05D80021B8
:1047A0002846FFF7DAFF0024F2E738BDF8B50646E1
:1047B00015464F1EFF00FFB201384000394600F099
:1047C000FE00FFF7CAFF002409E0A5F12002114B0B
:1047D00003EB0213185DFFF7B0FF0134E4B2072CBE
:1047E000F3D97000C0B201383946C0B2FFF7B5FF47
:1047F00000240BE0A5F1200104F10802054B03EBB6
:104800000113985CFFF799FF0134E4B2072CF1D94A
:10481000F8BD00BF30900008F8B507460E461546B3
:10482000002406E0A119C9B23846FFF7BFFF0134E2
:10483000E4B22A5D002AF5D1F8BD421C012002E055
:1048400002FB00F019464B1E0029F9D17047000009
:104850002DE9F843804689461E46171E04DB2B22AD
:10486000FFF7A4FF00241FE02D22FFF79FFF7F42E8
:10487000F8E704EB0905EDB2311B01390A20FFF717
:10488000DCFFB7FBF0F00A4AA2FB0032D20802EBD1
:104890008202A0EB42023032691CD2B2C9B2404659
:1048A000FFF784FF0134E4B2B442E2D3BDE8F883F9
:1048B000CDCCCCCC08B5002204E00133B3F57A7F2F
:1048C000FBD30132B2F57A7F01D20023F6E7FFF77E
:1048D000E9FEAE20FFF721FFD520FFF71EFF802065
:1048E000FFF71BFFA820FFF718FF3F20FFF715FF7A
:1048F000D320FFF712FF0020FFF70FFF4020FFF744
:104900000CFFA120FFF709FFC820FFF706FFDA2000
:10491000FFF703FF1220FFF700FF8120FFF7FDFEE6
:10492000CF20FFF7FAFED920FFF7F7FEF120FFF7BF
:10493000F4FEDB20FFF7F1FE3020FFF7EEFEA420AF
:10494000FFF7EBFEA620FFF7E8FE8D20FFF7E5FE60
:104950001420FFF7E2FEAF20FFF7DFFEFFF710FFA6
:1049600008BD000038B50446C578437813F0010F40
:1049700009D005F03F00C00805F007010131074BE1
:104980001B6803B19847637813F0080F04D0034BFA
:104990005B680BB1A8099847002038BD4002002091
:1049A00008B5C8234FF48062024940F6F63002F0A1
:1049B00001F808BD2096000810B586B004464C4B9F
:1049C0001B68ADF80C301B0C8DF80E30494B1B6882
:1049D000ADF808301B0C8DF80A30474B1B68ADF85A
:1049E00004301B0C8DF80630444B1B68ADF80030CA
:1049F0001B0C8DF8023000F0030101F118030DEBE0
:104A0000030111F80C3C8DF81430C0F3C10202F11F
:104A100018030DEB030212F80C3C8DF81530C0F3AF
:104A2000811318336B4413F80C0C8DF8160011F831
:104A3000101C8DF8101012F8102C8DF8112013F89E
:104A4000103C8DF8123005AA032140F2264001F0F7
:104A50003DFF002840D104AA032140F22A4001F082
:104A600035FF00283BD1019BADF814301B0C8DF8AD
:104A70001630009BADF810301B0C8DF8123014F07E
:104A8000040F05D037238DF8143027238DF810300C
:104A900014F0200F05D057238DF8153047238DF8DB
:104AA000113014F4807F05D077238DF816306723FA
:104AB0008DF8123005AA03214FF4886001F006FF3B
:104AC00080B904AA032140F2314001F0FFFE60B931
:104AD0000B4B1C8106B010BD4FF0FF30FAE74FF0D2
:104AE000FF30F7E74FF0FF30F4E74FF0FF30F1E72A
:104AF000FC8E0008008F0008048F0008088F000853
:104B00004002002070B584B0404B1B8903F00302C3
:104B100050F82220019213F0040F01D0524201926A
:104B2000C3F3C10250F82220029213F0200F01D0EB
:104B300052420292C3F3811250F82220039213F4DE
:104B4000807F01D052420392019BD817304AA3FBC9
:104B5000023102FB00119B0F43EA8103019302998A
:104B6000CC17A1FB021002FB04008D0F45EA800563
:104B70000295039CE017A4FB024102FB0012A40F64
:104B800044EA820403941A0E8DF80020C3F307420E
:104B90008DF80120C3F307228DF802208DF8033031
:104BA0006A4604214FF4747001F090FE40BB2B0E56
:104BB0008DF80030C5F307438DF80130C5F30723A6
:104BC0008DF802308DF803506A4604214FF4757059
:104BD00001F07CFEB8B9230E8DF80030C4F3074312
:104BE0008DF80130C4F307268DF802608DF803407C
:104BF0006A4604214FF4767001F068FE04B070BD7F
:104C00004FF0FF30FAE74FF0FF30F7E740020020A7
:104C100009E3CA0210B588B004460DF1060001F0A0
:104C20009BFABDF806C04FEACC3C364B1B8903F01B
:104C3000030254F82220059213F0040F01D05242CF
:104C40000592C3F3C10254F82220069213F0200FFC
:104C500001D052420692C3F3811254F822200792E7
:104C600013F4807F01D0524207920599CA17A1FB25
:104C70000C130CFB0233890F41EA83010591069A5C
:104C8000D017A2FB0C230CFB0033920F42EA8302E5
:104C90000692079BDC17A3FB0C300CFB04009B0F58
:104CA00043EA80030793080E8DF80800C1F307401C
:104CB0008DF80900C1F307208DF80A008DF80B105C
:104CC000110E8DF80C10C2F307418DF80D10C2F3D0
:104CD00007218DF80E108DF80F201A0E8DF8102078
:104CE000C3F307428DF81120C3F307228DF8122079
:104CF0008DF8133002AA0C214FF4257001F0E6FD67
:104D000008B010BD4002002010B586B00446164B16
:104D100093E8070006AB03E90700C82C1AD8C8239C
:104D200093FBF4F3013B1A0E8DF804208DF8053047
:104D300001AA022140F2162001F0C8FD68B903AAB9
:104D40000C2140F6C12001F0C1FD48B9074B9C8100
:104D500006B010BD4FF0FF30FAE74FF0FF30F7E735
:104D60004FF0FF30F4E700BF0C8F00084002002036
:104D700070B582B0044610F0070F00F0AC80084612
:104D8000B1F5C86F00F2AA80FEF7FEF95B49FEF7A5
:104D900007FB05460DF1030001F0D2F89DF8033042
:104DA000023B0E2B00F29D80DFE803F0089B2C9B5A
:104DB0009B9B3C9B9B9B9B9B9B9B4C004FF08D41EB
:104DC0002846FEF739FAFEF723FC86B24C492846FE
:104DD000FEF732FAFEF71CFC80B2330A8DF804307D
:104DE0008DF80560030A8DF806308DF8070014F081
:104DF000010F37D114F0020F48D114F0040F58D12D
:104E0000002070E04FF08C412846FEF715FAFEF7BF
:104E1000FFFB86B23B492846FEF70EFAFEF7F8FB89
:104E200080B2DAE74FF08B412846FEF705FAFEF72D
:104E3000EFFB86B234492846FEF7FEF9FEF7E8FBA1
:104E400080B2CAE74FF08A412846FEF7F5F9FEF72F
:104E5000DFFB86B22D492846FEF7EEF9FEF7D8FBB8
:104E600080B2BAE701AA02214FF4EA7001F02EFDE8
:104E700000283AD10DF1060202214FF4927001F0A0
:104E800025FD0028B6D04FF0FF302CE001AA02210A
:104E90004FF4EC7001F01AFD50BB0DF10602022137
:104EA0004FF4947001F012FD0028A6D04FF0FF30AF
:104EB00019E001AA02214FF4EE7001F007FDD0B90C
:104EC0000DF1060202214FF4967001F0FFFC50B183
:104ED0004FF0FF3007E04FF0FF3004E04FF0FF30BD
:104EE00001E04FF0FF3002B070BD4FF0FF30FAE745
:104EF0004FF0FF30F7E74FF0FF30F4E70000484392
:104F0000000040460000C045000040450000C0448D
:104F100000B583B000238DF8073010F0010F02D0E8
:104F200030238DF8073010F0020F05D09DF80730C0
:104F300043F00C038DF8073010F0040F05D09DF8F6
:104F4000073043F003038DF807300DF1070201210C
:104F50004FF4A47001F0BAFC03B05DF804FB00B597
:104F600083B020B10346042802D9042300E00123C2
:104F7000013B8DF807300DF10702012140F24F107F
:104F800001F0A4FC03B05DF804FB000000B583B0A1
:104F9000094BA3FB0030830A8DF80430C0F387006F
:104FA0008DF8050001AA02214FF4EF7001F08EFC8C
:104FB00003B05DF804FB00BFCDCCCCCC00B583B012
:104FC000094BA3FB0030830A8DF80430C0F387003F
:104FD0008DF8050001AA02214FF4ED7001F076FC76
:104FE00003B05DF804FB00BFCDCCCCCC00B583B0E2
:104FF0000E4B83FB0023C017C0EBA31000FB01F195
:105000000B0E8DF80430C1F307438DF80530C1F362
:1050100007238DF806308DF8071001AA04214FF4FC
:10502000AE7001F053FC03B05DF804FBD34D621089
:1050300000B583B0084BA3FB00308308800A8DF8CD
:1050400004008DF8053001AA02214FF4AD7001F083
:105050003DFC03B05DF804FBCDCCCCCC00B583B0F7
:10506000084BA3FB00308308800A8DF804008DF8FC
:10507000053001AA02214FF4AC7001F027FC03B007
:105080005DF804FBCDCCCCCC00B585B068B10D4A41
:1050900001AB07CA03C31A7001AA09214FF4976034
:1050A00001F014FC05B05DF804FB074A01AB07CA28
:1050B00003C31A7001AA09214FF4976001F006FC9E
:1050C000F0E700BF1C8F0008288F000800B583B0F0
:1050D000B0B1C0238DF80430C2238DF80530C4234D
:1050E0008DF80630C6238DF8073001AA042140F65A
:1050F000982001F0EBFB00F0BDFD03B05DF804FB70
:105100004FF08B330193F0E700B583B0B0B12023AB
:105110008DF8043028238DF8053030238DF80630C3
:1051200038238DF8073001AA042140F69E2001F0B3
:10513000CDFB00F09FFD03B05DF804FB4FF0A333FF
:105140000193F0E72DE9F04184B0044602238DF885
:105150000430CA238DF80530E3238DF80630092387
:105160008DF8073001AA0421682001F0AFFBA323CA
:105170008DF8043014F0400800F0B080C0238DF8A2
:105180000530C8238DF80630C2238DF8073014F49B
:10519000C07500F0AB80C4238DF80830CC238DF8A7
:1051A0000930C6238DF80A30A3238DF80B308DF813
:1051B0000C308DF80D3001AA0A2140F6A72001F02D
:1051C00085FB14F0030700F0998020238DF804304C
:1051D00001AA012140F6B62001F078FB14F0200F5F
:1051E00000F090800120FFF74FFFADB114F4807FF5
:1051F00000F08C80B2238DF804308B238DF80530BD
:10520000B6238DF806309B238DF8073001AA0421C0
:1052100040F6A22001F05AFB14F0010F00F0838049
:10522000F8238DF8043001AA01214FF40B6001F03E
:105230004DFBFA210720FFF79BFD0720FFF768FED3
:105240000120FFF78CFE6420FFF7A0FE4FF4FA70F8
:10525000FFF7B4FEC8213F48FFF7C8FE2820FFF73C
:10526000E7FE0A20FFF7FAFE14F0020F65D0D923FB
:105270008DF8043001AA012140F23D7001F026FBB7
:1052800014F0040F5DD00120FFF720FF14F0100F81
:105290005BD00120FFF738FF2F4E44F008037381E5
:1052A00000F0E8FC0023B373B8F1000F01D0062230
:1052B000B2731DB1284A937B0633937314F0140F15
:1052C00003D0254A937B103393731FB1224A937BFB
:1052D00004339373002004B0BDE8F081A3238DF85C
:1052E00005308DF806308DF8073050E7A3238DF890
:1052F00008308DF809308DF80A3055E7D8238DF83D
:10530000043065E70020FFF7BFFE6EE7B0238DF89D
:10531000043080238DF80530B4238DF806309023B7
:105320008DF8073072E7D8238DF8043001AA0121E7
:105330004FF40B6001F0CAFA96E7D8238DF80430D9
:1053400098E70020FFF7C2FEA0E70020FFF7DCFE91
:10535000A2E700BF09E3CA02400200202DE9F0479E
:105360008CB006460F4692469846149D00232B802B
:10537000159A04A9734B987B00F04EFF002840F06B
:10538000DE8081466F4B5B8913F0140F65D09DF86A
:1053900010209DF81100000440EA02609DF81220E0
:1053A00040EA02209DF813201043CAF800009DF83F
:1053B00014109DF81520120442EA01629DF816109F
:1053C00042EA01229DF817100A43CAF804209DF80A
:1053D00018409DF81910090441EA04619DF81A402B
:1053E00041EA04219DF81B402143CAF808109DF8AA
:1053F0001CC09DF81D40240444EA0C649DF81EC0A6
:1054000044EA0C249DF81FC044EA0C04CAF80C407E
:10541000001400904FEA224CCDF804C00914029108
:10542000221403920CFB0CFC00FB00C001FB0101E9
:1054300002FB021202F17142B2F1007F06D8B5F907
:10544000002042F480722A80102207E000F012FC53
:1054500000232B804FF0FF3968E0002213F0400F4B
:105460002DD002F13001694411F8200C02F1310114
:10547000694411F8201C41EA0021398002F132010F
:10548000694411F8200C02F13301694411F8201C21
:1054900041EA0021798002F13401694411F8200CBD
:1054A00002F13501694411F8201C41EA0021B9805C
:1054B0000632D2B2B5F9001041F00801298013F488
:1054C000C07F2DD002F13001694411F8200C02F1A7
:1054D0003101694411F8201C41EA0021318002F1B8
:1054E0003201694411F8200C02F13301694411F8CA
:1054F000201C41EA0021718002F13401694411F855
:10550000200C02F13501694411F8201C41EA002108
:10551000B1800632D2B2B5F9001041F07001298095
:1055200013F0030F06D1404601F0DDFB48460CB0F6
:10553000BDE8F08704AB9818FFF714FAF3E74FF0D3
:10554000FF39F3E740020020F0B583B007462C4B4B
:10555000586801AB04220D21007801F03AFE0028C2
:105560004BD104469DF80420D21002F01C029DF895
:105570000730C3F301110A438DF800209DF8052080
:10558000D21002F01C02C3F381010A438DF80120FE
:105590009DF80620D21002F01C0203F0030313430F
:1055A0008DF8023018E007EB8405164B47F82430DD
:1055B00004E015492868FDF73FFE286006F108035E
:1055C0000DEB030212F8083C013BDBB202F8083C89
:1055D000002BEED10134E4B2022C0BD8264604F1A4
:1055E00008036B4413F8083C002BDCD1002347F878
:1055F0002430EFE7002003B0F0BD0720FBE700BF39
:10560000740000207B14AE3E1D5A843F2DE9F04308
:1056100085B08146884601A8FFF796FF00273C46E3
:105620000DE021493046FDF7A5FF20B91F4930465E
:10563000FDF7BEFF10B10123A3401F430134022C2C
:105640002EDCA50059F8240058F82430C01A002890
:10565000B8BF4042FDF79CFD4FF05E51FDF7ECFDF9
:10566000064605F110030DEB030555F80C5C00210F
:105670002846FDF775FF0028D3D129463046FDF7AF
:105680008FFE4FF07E51FDF7CDFC20F00040084921
:10569000FDF78EFF0028D1D00123A3401F43CDE7A3
:1056A000384605B0BDE8F0839A99993E3333733F8D
:1056B000295C0F3E2DE9F04182B007468846374B02
:1056C000586801AB03220D21007801F082FD00280B
:1056D0005FD19DF8043003F01F038DF804309DF86E
:1056E000053003F01F038DF805309DF8063003F0F8
:1056F0001F038DF806300026344626E02849FDF7C2
:105700009BFD04F108030DEB030212F8043C013B7E
:10571000DBB202F8043C002BF0D101462846FDF72D
:105720003FFE4FF07E51FDF77DFC20F000401D490B
:10573000FDF73EFF40B10123A3401E4304E01A4899
:10574000DFE70123A3401E430134022C22DC57F87B
:10575000240058F82430C01A0028B8BF4042FDF792
:1057600017FD4FF05E51FDF767FD054604F1080394
:105770006B4413F8043C002BE1D10C49FDF7FAFE11
:105780000028DED10A492846FDF712FF0028DBD0A9
:10579000D7E70726304602B0BDE8F081740000204C
:1057A00054E3853F295C0F3E0000C84100002041C2
:1057B0000000D24200B583B0234B93F82430CBB124
:1057C000A0B102238DF807301F4B586819680DF1FE
:1057D00007030122C97B007801F0CAFC40BB9DF899
:1057E0000720194B5A7403B05DF804FB00238DF8B1
:1057F0000730E9E7144B9B7AEBB130B1124B5B7C7D
:10580000E3B901238DF8073002E000238DF807305B
:105810000D4B586819680DF107030122C97B007808
:1058200001F0A6FC60B99DF80720074B5A74DAE72F
:105830004FF0FF30D7E74FF0FF30D4E70020D2E73A
:105840004FF0FF30CFE700BF74000020F0B589B003
:1058500005460C46164601238DF8143000238DF8BA
:105860001530854B5868196805AB0222897C007891
:1058700001F07EFC002840F0CE81C820FEF732F90E
:1058800000238DF814307C4B5868196805AB012251
:10589000C97B007801F06CFC002840F0BF81764B9A
:1058A0005868196805AB01224979007801F060FC5D
:1058B000002840F0B681704B5868196805AB01228A
:1058C000897C007801F054FC002840F0AD816A4BDF
:1058D0005868196805AB0122C97D007801F048FCC1
:1058E000002840F0A481644B5868196805AB012278
:1058F0000979007801F03CFC002840F09B810C23E2
:105900008DF814305C4B5868196805AB0122097991
:10591000007801F02DFC002840F08F810F20FEF769
:10592000E1F8554B9A6A527A8DF814205868196834
:1059300005AB01228978007801F01AFC002840F0BC
:105940007F814D4B9A6A127A8DF814205868196835
:1059500005AB01224978007801F00AFC002840F0EC
:105960007281002E79D0444B9B6A9B7A63F01F03AF
:105970008DF81430404B5868196805AB01228979BD
:10598000007801F0F5FB002840F06081002E6AD01D
:10599000394B9B6ADB7A63F01F038DF81430364B6A
:1059A0005868196805AB0122C979007801F0E0FB5D
:1059B000002840F04E81002E59D140238DF814303C
:1059C0002D4B5868196805AB01220979007801F060
:1059D000CFFB002840F0408178238DF81430264B0F
:1059E0005868196805AB01224979007801F0C0FBBD
:1059F000002840F034813220FEF774F800238DF83F
:105A000014301D4B5868196805AB0122497900789C
:105A100001F0AEFB002840F02581174B586819684B
:105A200005AB0222897A007801F0D3FB06460028F4
:105A300040F01B819DF814309DF8157047EA03274C
:105A40000E4BA3FB0737C7F3C7070023AB606B60A0
:105A50002B60A360636023605CE0074B9B6A9B7ACA
:105A60008DF8143086E718238DF8143097E7C82096
:105A7000FEF738F8A1E700BF74000020ABAAAAAA7D
:105A80009DF814309DF8151041EA032109B2ADF8D4
:105A900004109DF816309DF8172042EA032212B236
:105AA000ADF806209DF818009DF8193043EA002350
:105AB0001BB2ADF8083020680844206061681144CA
:105AC0006160A2681A44A2609DF81A309DF81B100C
:105AD00041EA032109B2ADF80C109DF81C309DF885
